{
    "contractName": "Nosark",
    "abi": [
        {
            "inputs": [],
            "stateMutability": "nonpayable",
            "type": "constructor"
        },
        {
            "inputs": [
                {
                    "internalType": "address",
                    "name": "spender",
                    "type": "address"
                },
                {
                    "internalType": "uint256",
                    "name": "allowance",
                    "type": "uint256"
                },
                {
                    "internalType": "uint256",
                    "name": "needed",
                    "type": "uint256"
                }
            ],
            "name": "ERC20InsufficientAllowance",
            "type": "error"
        },
        {
            "inputs": [
                {
                    "internalType": "address",
                    "name": "sender",
                    "type": "address"
                },
                {
                    "internalType": "uint256",
                    "name": "balance",
                    "type": "uint256"
                },
                {
                    "internalType": "uint256",
                    "name": "needed",
                    "type": "uint256"
                }
            ],
            "name": "ERC20InsufficientBalance",
            "type": "error"
        },
        {
            "inputs": [
                {
                    "internalType": "address",
                    "name": "approver",
                    "type": "address"
                }
            ],
            "name": "ERC20InvalidApprover",
            "type": "error"
        },
        {
            "inputs": [
                {
                    "internalType": "address",
                    "name": "receiver",
                    "type": "address"
                }
            ],
            "name": "ERC20InvalidReceiver",
            "type": "error"
        },
        {
            "inputs": [
                {
                    "internalType": "address",
                    "name": "sender",
                    "type": "address"
                }
            ],
            "name": "ERC20InvalidSender",
            "type": "error"
        },
        {
            "inputs": [
                {
                    "internalType": "address",
                    "name": "spender",
                    "type": "address"
                }
            ],
            "name": "ERC20InvalidSpender",
            "type": "error"
        },
        {
            "anonymous": false,
            "inputs": [
                {
                    "indexed": true,
                    "internalType": "address",
                    "name": "owner",
                    "type": "address"
                },
                {
                    "indexed": true,
                    "internalType": "address",
                    "name": "spender",
                    "type": "address"
                },
                {
                    "indexed": false,
                    "internalType": "uint256",
                    "name": "value",
                    "type": "uint256"
                }
            ],
            "name": "Approval",
            "type": "event"
        },
        {
            "anonymous": false,
            "inputs": [
                {
                    "indexed": true,
                    "internalType": "address",
                    "name": "from",
                    "type": "address"
                },
                {
                    "indexed": true,
                    "internalType": "address",
                    "name": "to",
                    "type": "address"
                },
                {
                    "indexed": false,
                    "internalType": "uint256",
                    "name": "value",
                    "type": "uint256"
                }
            ],
            "name": "Transfer",
            "type": "event"
        },
        {
            "inputs": [],
            "name": "_supply",
            "outputs": [
                {
                    "internalType": "uint256",
                    "name": "",
                    "type": "uint256"
                }
            ],
            "stateMutability": "view",
            "type": "function"
        },
        {
            "inputs": [],
            "name": "_totalsupply",
            "outputs": [
                {
                    "internalType": "uint256",
                    "name": "",
                    "type": "uint256"
                }
            ],
            "stateMutability": "view",
            "type": "function"
        },
        {
            "inputs": [
                {
                    "internalType": "address",
                    "name": "owner",
                    "type": "address"
                },
                {
                    "internalType": "address",
                    "name": "spender",
                    "type": "address"
                }
            ],
            "name": "allowance",
            "outputs": [
                {
                    "internalType": "uint256",
                    "name": "",
                    "type": "uint256"
                }
            ],
            "stateMutability": "view",
            "type": "function"
        },
        {
            "inputs": [
                {
                    "internalType": "address",
                    "name": "spender",
                    "type": "address"
                },
                {
                    "internalType": "uint256",
                    "name": "value",
                    "type": "uint256"
                }
            ],
            "name": "approve",
            "outputs": [
                {
                    "internalType": "bool",
                    "name": "",
                    "type": "bool"
                }
            ],
            "stateMutability": "nonpayable",
            "type": "function"
        },
        {
            "inputs": [
                {
                    "internalType": "address",
                    "name": "account",
                    "type": "address"
                }
            ],
            "name": "balanceOf",
            "outputs": [
                {
                    "internalType": "uint256",
                    "name": "",
                    "type": "uint256"
                }
            ],
            "stateMutability": "view",
            "type": "function"
        },
        {
            "inputs": [],
            "name": "decimals",
            "outputs": [
                {
                    "internalType": "uint8",
                    "name": "",
                    "type": "uint8"
                }
            ],
            "stateMutability": "view",
            "type": "function"
        },
        {
            "inputs": [
                {
                    "internalType": "uint256",
                    "name": "_supply1",
                    "type": "uint256"
                }
            ],
            "name": "initialsupply",
            "outputs": [],
            "stateMutability": "nonpayable",
            "type": "function"
        },
        {
            "inputs": [],
            "name": "name",
            "outputs": [
                {
                    "internalType": "string",
                    "name": "",
                    "type": "string"
                }
            ],
            "stateMutability": "view",
            "type": "function"
        },
        {
            "inputs": [],
            "name": "owner",
            "outputs": [
                {
                    "internalType": "address",
                    "name": "",
                    "type": "address"
                }
            ],
            "stateMutability": "view",
            "type": "function"
        },
        {
            "inputs": [],
            "name": "symbol",
            "outputs": [
                {
                    "internalType": "string",
                    "name": "",
                    "type": "string"
                }
            ],
            "stateMutability": "view",
            "type": "function"
        },
        {
            "inputs": [],
            "name": "totalSupply",
            "outputs": [
                {
                    "internalType": "uint256",
                    "name": "",
                    "type": "uint256"
                }
            ],
            "stateMutability": "view",
            "type": "function"
        },
        {
            "inputs": [
                {
                    "internalType": "address",
                    "name": "to",
                    "type": "address"
                },
                {
                    "internalType": "uint256",
                    "name": "value",
                    "type": "uint256"
                }
            ],
            "name": "transfer",
            "outputs": [
                {
                    "internalType": "bool",
                    "name": "",
                    "type": "bool"
                }
            ],
            "stateMutability": "nonpayable",
            "type": "function"
        },
        {
            "inputs": [
                {
                    "internalType": "address",
                    "name": "from",
                    "type": "address"
                },
                {
                    "internalType": "address",
                    "name": "to",
                    "type": "address"
                },
                {
                    "internalType": "uint256",
                    "name": "value",
                    "type": "uint256"
                }
            ],
            "name": "transferFrom",
            "outputs": [
                {
                    "internalType": "bool",
                    "name": "",
                    "type": "bool"
                }
            ],
            "stateMutability": "nonpayable",
            "type": "function"
        }
    ],
    "bytecode": "6080604052346103cd57604080519081016001600160401b038111828210176102e057604090815260068252654e4f5341524b60d01b602083015280519081016001600160401b038111828210176102e05760405260028152614e4b60f01b602082015281516001600160401b0381116102e057600354600181811c911680156103c3575b60208210146102c257601f8111610360575b50602092601f82116001146102ff57928192935f926102f4575b50508160011b915f199060031b1c1916176003555b80516001600160401b0381116102e057600454600181811c911680156102d6575b60208210146102c257601f811161025f575b50602091601f82116001146101ff579181925f926101f4575b50508160011b915f199060031b1c1916176004555b6a295be96e64066972000000600555600680546001600160a01b03191633908117909155156101e1576002546a295be96e6406697200000081018091116101cd57600255335f525f60205260405f206a295be96e6406697200000081540190556040516a295be96e6406697200000081525f7fddf252ad1be2c89b69c2b068fc378daa952ba7f163c4a11628f55a4df523b3ef60203393a36040516107b190816103d28239f35b634e487b7160e01b5f52601160045260245ffd5b63ec442f0560e01b5f525f60045260245ffd5b015190505f80610111565b601f1982169260045f52805f20915f5b8581106102475750836001951061022f575b505050811b01600455610126565b01515f1960f88460031b161c191690555f8080610221565b9192602060018192868501518155019401920161020f565b60045f527f8a35acfbc15ff81a39ae7d344fd709f28e8600b4aa8c65c6b64bfe7fe36bd19b601f830160051c810191602084106102b8575b601f0160051c01905b8181106102ad57506100f8565b5f81556001016102a0565b9091508190610297565b634e487b7160e01b5f52602260045260245ffd5b90607f16906100e6565b634e487b7160e01b5f52604160045260245ffd5b015190505f806100b0565b601f1982169360035f52805f20915f5b8681106103485750836001959610610330575b505050811b016003556100c5565b01515f1960f88460031b161c191690555f8080610322565b9192602060018192868501518155019401920161030f565b60035f527fc2575a0e9e593c00f959f8c92f12db2869c3395a3b0502d05e2516446f71f85b601f830160051c810191602084106103b9575b601f0160051c01905b8181106103ae5750610096565b5f81556001016103a1565b9091508190610398565b90607f1690610084565b5f80fdfe6080806040526004361015610012575f80fd5b5f3560e01c90816306fdde03146105ac57508063095ea7b31461052a578063159457901461027b57806318160ddd1461050d57806323b872dd1461042d578063313ce5671461041257806370a08231146103db5780638da5cb5b146103b357806395d89b4114610298578063a393dc441461027b578063a9059cbb1461024a578063d05382a7146100ff5763dd62ed3e146100ab575f80fd5b346100fb5760403660031901126100fb576100c46106a5565b6100cc6106bb565b6001600160a01b039182165f908152600160209081526040808320949093168252928352819020549051908152f35b5f80fd5b346100fb5760203660031901126100fb57600654600435906001600160a01b03163303610205576a52b7d2dcc80cd2e4000000600554116101cf5733156101bc576002548181018091116101a857600255335f525f60205260405f208181540190556040518181525f7fddf252ad1be2c89b69c2b068fc378daa952ba7f163c4a11628f55a4df523b3ef60203393a36a295be96e6406697200000081018091116101a857600555005b634e487b7160e01b5f52601160045260245ffd5b63ec442f0560e01b5f525f60045260245ffd5b60405162461bcd60e51b815260206004820152600e60248201526d131253525508115610d15151115160921b6044820152606490fd5b60405162461bcd60e51b815260206004820152601760248201527f63616c6c6572206973206e6f7420746865206f776e65720000000000000000006044820152606490fd5b346100fb5760403660031901126100fb576102706102666106a5565b60243590336106d1565b602060405160018152f35b346100fb575f3660031901126100fb576020600554604051908152f35b346100fb575f3660031901126100fb576040515f6004548060011c906001811680156103a9575b602083108114610395578285529081156103795750600114610324575b50819003601f01601f191681019067ffffffffffffffff8211818310176103105761030c8291826040528261067b565b0390f35b634e487b7160e01b5f52604160045260245ffd5b905060045f527f8a35acfbc15ff81a39ae7d344fd709f28e8600b4aa8c65c6b64bfe7fe36bd19b5f905b828210610363575060209150820101826102dc565b600181602092548385880101520191019061034e565b90506020925060ff191682840152151560051b820101826102dc565b634e487b7160e01b5f52602260045260245ffd5b91607f16916102bf565b346100fb575f3660031901126100fb576006546040516001600160a01b039091168152602090f35b346100fb5760203660031901126100fb576001600160a01b036103fc6106a5565b165f525f602052602060405f2054604051908152f35b346100fb575f3660031901126100fb57602060405160128152f35b346100fb5760603660031901126100fb576104466106a5565b61044e6106bb565b6001600160a01b0382165f81815260016020818152604080842033855290915290912054919360443593929091810161048d575b5061027093506106d1565b8381106104f25784156104df5733156104cc57610270945f52600160205260405f2060018060a01b0333165f526020528360405f209103905584610482565b634a1406b160e11b5f525f60045260245ffd5b63e602df0560e01b5f525f60045260245ffd5b8390637dc7a0d960e11b5f523360045260245260445260645ffd5b346100fb575f3660031901126100fb576020600254604051908152f35b346100fb5760403660031901126100fb576105436106a5565b6024359033156104df576001600160a01b03169081156104cc57335f52600160205260405f20825f526020528060405f20556040519081527f8c5be1e5ebec7d5bd14f71427d1e84f3dd0314c0f7b2291e5b200ac8c7c3b92560203392a3602060405160018152f35b346100fb575f3660031901126100fb575f6003548060011c90600181168015610671575b60208310811461039557828552908115610379575060011461061c5750819003601f01601f191681019067ffffffffffffffff8211818310176103105761030c8291826040528261067b565b905060035f527fc2575a0e9e593c00f959f8c92f12db2869c3395a3b0502d05e2516446f71f85b5f905b82821061065b575060209150820101826102dc565b6001816020925483858801015201910190610646565b91607f16916105d0565b602060409281835280519182918282860152018484015e5f828201840152601f01601f1916010190565b600435906001600160a01b03821682036100fb57565b602435906001600160a01b03821682036100fb57565b6001600160a01b0316908115610768576001600160a01b03169182156101bc57815f525f60205260405f205481811061074f57817fddf252ad1be2c89b69c2b068fc378daa952ba7f163c4a11628f55a4df523b3ef92602092855f525f84520360405f2055845f525f825260405f20818154019055604051908152a3565b8263391434e360e21b5f5260045260245260445260645ffd5b634b637e8f60e11b5f525f60045260245ffdfea2646970667358221220b32bc1b365d8366f71f26ae1ae01f9a6fc0772d78db30c25c55b5aa567bcd8d764736f6c634300081c0033",
    "sourcePath": "c:/Users/nooru/OneDrive/Desktop/work/learning/testcoin/contracts/Nosark.sol",
    "compiler": {
        "name": "solc",
        "version": "0.8.28+commit.7893614a"
    },
    "functionHashes": {
        "_supply()": "15945790",
        "_totalsupply()": "a393dc44",
        "allowance(address,address)": "dd62ed3e",
        "approve(address,uint256)": "095ea7b3",
        "balanceOf(address)": "70a08231",
        "decimals()": "313ce567",
        "initialsupply(uint256)": "d05382a7",
        "name()": "06fdde03",
        "owner()": "8da5cb5b",
        "symbol()": "95d89b41",
        "totalSupply()": "18160ddd",
        "transfer(address,uint256)": "a9059cbb",
        "transferFrom(address,address,uint256)": "23b872dd"
    },
    "gasEstimates": {
        "creation": {
            "codeDepositCost": "393800",
            "executionCost": "infinite",
            "totalCost": "infinite"
        },
        "external": {
            "_supply()": "2300",
            "_totalsupply()": "2454",
            "allowance(address,address)": "2834",
            "approve(address,uint256)": "24325",
            "balanceOf(address)": "2537",
            "decimals()": "263",
            "initialsupply(uint256)": "77095",
            "name()": "infinite",
            "owner()": "2434",
            "symbol()": "infinite",
            "totalSupply()": "2322",
            "transfer(address,uint256)": "50974",
            "transferFrom(address,address,uint256)": "75549"
        }
    }
}