{
  "_format": "hh-sol-artifact-1",
  "contractName": "Nosark",
  "sourceName": "contracts/Nosark.sol",
  "abi": [
    {
      "inputs": [
        {
          "internalType": "uint256",
          "name": "_supplyy",
          "type": "uint256"
        }
      ],
      "stateMutability": "nonpayable",
      "type": "constructor"
    },
    {
      "inputs": [
        {
          "internalType": "address",
          "name": "spender",
          "type": "address"
        },
        {
          "internalType": "uint256",
          "name": "allowance",
          "type": "uint256"
        },
        {
          "internalType": "uint256",
          "name": "needed",
          "type": "uint256"
        }
      ],
      "name": "ERC20InsufficientAllowance",
      "type": "error"
    },
    {
      "inputs": [
        {
          "internalType": "address",
          "name": "sender",
          "type": "address"
        },
        {
          "internalType": "uint256",
          "name": "balance",
          "type": "uint256"
        },
        {
          "internalType": "uint256",
          "name": "needed",
          "type": "uint256"
        }
      ],
      "name": "ERC20InsufficientBalance",
      "type": "error"
    },
    {
      "inputs": [
        {
          "internalType": "address",
          "name": "approver",
          "type": "address"
        }
      ],
      "name": "ERC20InvalidApprover",
      "type": "error"
    },
    {
      "inputs": [
        {
          "internalType": "address",
          "name": "receiver",
          "type": "address"
        }
      ],
      "name": "ERC20InvalidReceiver",
      "type": "error"
    },
    {
      "inputs": [
        {
          "internalType": "address",
          "name": "sender",
          "type": "address"
        }
      ],
      "name": "ERC20InvalidSender",
      "type": "error"
    },
    {
      "inputs": [
        {
          "internalType": "address",
          "name": "spender",
          "type": "address"
        }
      ],
      "name": "ERC20InvalidSpender",
      "type": "error"
    },
    {
      "anonymous": false,
      "inputs": [
        {
          "indexed": true,
          "internalType": "address",
          "name": "owner",
          "type": "address"
        },
        {
          "indexed": true,
          "internalType": "address",
          "name": "spender",
          "type": "address"
        },
        {
          "indexed": false,
          "internalType": "uint256",
          "name": "value",
          "type": "uint256"
        }
      ],
      "name": "Approval",
      "type": "event"
    },
    {
      "anonymous": false,
      "inputs": [
        {
          "indexed": true,
          "internalType": "address",
          "name": "from",
          "type": "address"
        },
        {
          "indexed": true,
          "internalType": "address",
          "name": "to",
          "type": "address"
        },
        {
          "indexed": false,
          "internalType": "uint256",
          "name": "value",
          "type": "uint256"
        }
      ],
      "name": "Transfer",
      "type": "event"
    },
    {
      "inputs": [],
      "name": "_supply",
      "outputs": [
        {
          "internalType": "uint256",
          "name": "",
          "type": "uint256"
        }
      ],
      "stateMutability": "view",
      "type": "function"
    },
    {
      "inputs": [],
      "name": "_totalsupply",
      "outputs": [
        {
          "internalType": "uint256",
          "name": "",
          "type": "uint256"
        }
      ],
      "stateMutability": "view",
      "type": "function"
    },
    {
      "inputs": [
        {
          "internalType": "address",
          "name": "owner",
          "type": "address"
        },
        {
          "internalType": "address",
          "name": "spender",
          "type": "address"
        }
      ],
      "name": "allowance",
      "outputs": [
        {
          "internalType": "uint256",
          "name": "",
          "type": "uint256"
        }
      ],
      "stateMutability": "view",
      "type": "function"
    },
    {
      "inputs": [
        {
          "internalType": "address",
          "name": "spender",
          "type": "address"
        },
        {
          "internalType": "uint256",
          "name": "value",
          "type": "uint256"
        }
      ],
      "name": "approve",
      "outputs": [
        {
          "internalType": "bool",
          "name": "",
          "type": "bool"
        }
      ],
      "stateMutability": "nonpayable",
      "type": "function"
    },
    {
      "inputs": [
        {
          "internalType": "address",
          "name": "account",
          "type": "address"
        }
      ],
      "name": "balanceOf",
      "outputs": [
        {
          "internalType": "uint256",
          "name": "",
          "type": "uint256"
        }
      ],
      "stateMutability": "view",
      "type": "function"
    },
    {
      "inputs": [],
      "name": "decimals",
      "outputs": [
        {
          "internalType": "uint8",
          "name": "",
          "type": "uint8"
        }
      ],
      "stateMutability": "view",
      "type": "function"
    },
    {
      "inputs": [
        {
          "internalType": "uint256",
          "name": "_supply1",
          "type": "uint256"
        }
      ],
      "name": "initialsupply",
      "outputs": [],
      "stateMutability": "nonpayable",
      "type": "function"
    },
    {
      "inputs": [],
      "name": "name",
      "outputs": [
        {
          "internalType": "string",
          "name": "",
          "type": "string"
        }
      ],
      "stateMutability": "view",
      "type": "function"
    },
    {
      "inputs": [],
      "name": "owner",
      "outputs": [
        {
          "internalType": "address",
          "name": "",
          "type": "address"
        }
      ],
      "stateMutability": "view",
      "type": "function"
    },
    {
      "inputs": [],
      "name": "symbol",
      "outputs": [
        {
          "internalType": "string",
          "name": "",
          "type": "string"
        }
      ],
      "stateMutability": "view",
      "type": "function"
    },
    {
      "inputs": [],
      "name": "totalSupply",
      "outputs": [
        {
          "internalType": "uint256",
          "name": "",
          "type": "uint256"
        }
      ],
      "stateMutability": "view",
      "type": "function"
    },
    {
      "inputs": [
        {
          "internalType": "address",
          "name": "to",
          "type": "address"
        },
        {
          "internalType": "uint256",
          "name": "value",
          "type": "uint256"
        }
      ],
      "name": "transfer",
      "outputs": [
        {
          "internalType": "bool",
          "name": "",
          "type": "bool"
        }
      ],
      "stateMutability": "nonpayable",
      "type": "function"
    },
    {
      "inputs": [
        {
          "internalType": "address",
          "name": "from",
          "type": "address"
        },
        {
          "internalType": "address",
          "name": "to",
          "type": "address"
        },
        {
          "internalType": "uint256",
          "name": "value",
          "type": "uint256"
        }
      ],
      "name": "transferFrom",
      "outputs": [
        {
          "internalType": "bool",
          "name": "",
          "type": "bool"
        }
      ],
      "stateMutability": "nonpayable",
      "type": "function"
    }
  ],
  "bytecode": "0x60806040526a295be96e6406697200000060055534801561001f57600080fd5b50604051611a50380380611a508339818101604052810190610041919061040e565b6040518060400160405280600681526020017f4e4f5341524b00000000000000000000000000000000000000000000000000008152506040518060400160405280600281526020017f4e4b00000000000000000000000000000000000000000000000000000000000081525081600390816100bc9190610681565b5080600490816100cc9190610681565b50505033600660006101000a81548173ffffffffffffffffffffffffffffffffffffffff021916908373ffffffffffffffffffffffffffffffffffffffff160217905550610120338261012660201b60201c565b50610873565b600073ffffffffffffffffffffffffffffffffffffffff168273ffffffffffffffffffffffffffffffffffffffff16036101985760006040517fec442f0500000000000000000000000000000000000000000000000000000000815260040161018f9190610794565b60405180910390fd5b6101aa600083836101ae60201b60201c565b5050565b600073ffffffffffffffffffffffffffffffffffffffff168373ffffffffffffffffffffffffffffffffffffffff16036102005780600260008282546101f491906107de565b925050819055506102d3565b60008060008573ffffffffffffffffffffffffffffffffffffffff1673ffffffffffffffffffffffffffffffffffffffff1681526020019081526020016000205490508181101561028c578381836040517fe450d38c00000000000000000000000000000000000000000000000000000000815260040161028393929190610821565b60405180910390fd5b8181036000808673ffffffffffffffffffffffffffffffffffffffff1673ffffffffffffffffffffffffffffffffffffffff16815260200190815260200160002081905550505b600073ffffffffffffffffffffffffffffffffffffffff168273ffffffffffffffffffffffffffffffffffffffff160361031c5780600260008282540392505081905550610369565b806000808473ffffffffffffffffffffffffffffffffffffffff1673ffffffffffffffffffffffffffffffffffffffff168152602001908152602001600020600082825401925050819055505b8173ffffffffffffffffffffffffffffffffffffffff168373ffffffffffffffffffffffffffffffffffffffff167fddf252ad1be2c89b69c2b068fc378daa952ba7f163c4a11628f55a4df523b3ef836040516103c69190610858565b60405180910390a3505050565b600080fd5b6000819050919050565b6103eb816103d8565b81146103f657600080fd5b50565b600081519050610408816103e2565b92915050565b600060208284031215610424576104236103d3565b5b6000610432848285016103f9565b91505092915050565b600081519050919050565b7f4e487b7100000000000000000000000000000000000000000000000000000000600052604160045260246000fd5b7f4e487b7100000000000000000000000000000000000000000000000000000000600052602260045260246000fd5b600060028204905060018216806104bc57607f821691505b6020821081036104cf576104ce610475565b5b50919050565b60008190508160005260206000209050919050565b60006020601f8301049050919050565b600082821b905092915050565b6000600883026105377fffffffffffffffffffffffffffffffffffffffffffffffffffffffffffffffff826104fa565b61054186836104fa565b95508019841693508086168417925050509392505050565b6000819050919050565b600061057e610579610574846103d8565b610559565b6103d8565b9050919050565b6000819050919050565b61059883610563565b6105ac6105a482610585565b848454610507565b825550505050565b600090565b6105c16105b4565b6105cc81848461058f565b505050565b5b818110156105f0576105e56000826105b9565b6001810190506105d2565b5050565b601f82111561063557610606816104d5565b61060f846104ea565b8101602085101561061e578190505b61063261062a856104ea565b8301826105d1565b50505b505050565b600082821c905092915050565b60006106586000198460080261063a565b1980831691505092915050565b60006106718383610647565b9150826002028217905092915050565b61068a8261043b565b67ffffffffffffffff8111156106a3576106a2610446565b5b6106ad82546104a4565b6106b88282856105f4565b600060209050601f8311600181146106eb57600084156106d9578287015190505b6106e38582610665565b86555061074b565b601f1984166106f9866104d5565b60005b82811015610721578489015182556001820191506020850194506020810190506106fc565b8683101561073e578489015161073a601f891682610647565b8355505b6001600288020188555050505b505050505050565b600073ffffffffffffffffffffffffffffffffffffffff82169050919050565b600061077e82610753565b9050919050565b61078e81610773565b82525050565b60006020820190506107a96000830184610785565b92915050565b7f4e487b7100000000000000000000000000000000000000000000000000000000600052601160045260246000fd5b60006107e9826103d8565b91506107f4836103d8565b925082820190508082111561080c5761080b6107af565b5b92915050565b61081b816103d8565b82525050565b60006060820190506108366000830186610785565b6108436020830185610812565b6108506040830184610812565b949350505050565b600060208201905061086d6000830184610812565b92915050565b6111ce806108826000396000f3fe608060405234801561001057600080fd5b50600436106100cf5760003560e01c806370a082311161008c578063a393dc4411610066578063a393dc4414610218578063a9059cbb14610236578063d05382a714610266578063dd62ed3e14610282576100cf565b806370a08231146101ac5780638da5cb5b146101dc57806395d89b41146101fa576100cf565b806306fdde03146100d4578063095ea7b3146100f2578063159457901461012257806318160ddd1461014057806323b872dd1461015e578063313ce5671461018e575b600080fd5b6100dc6102b2565b6040516100e99190610d1d565b60405180910390f35b61010c60048036038101906101079190610dd8565b610344565b6040516101199190610e33565b60405180910390f35b61012a610367565b6040516101379190610e5d565b60405180910390f35b61014861036d565b6040516101559190610e5d565b60405180910390f35b61017860048036038101906101739190610e78565b610377565b6040516101859190610e33565b60405180910390f35b6101966103a6565b6040516101a39190610ee7565b60405180910390f35b6101c660048036038101906101c19190610f02565b6103af565b6040516101d39190610e5d565b60405180910390f35b6101e46103f7565b6040516101f19190610f3e565b60405180910390f35b61020261041d565b60405161020f9190610d1d565b60405180910390f35b6102206104af565b60405161022d9190610e5d565b60405180910390f35b610250600480360381019061024b9190610dd8565b6104b9565b60405161025d9190610e33565b60405180910390f35b610280600480360381019061027b9190610f59565b6104dc565b005b61029c60048036038101906102979190610f86565b6105e6565b6040516102a99190610e5d565b60405180910390f35b6060600380546102c190610ff5565b80601f01602080910402602001604051908101604052809291908181526020018280546102ed90610ff5565b801561033a5780601f1061030f5761010080835404028352916020019161033a565b820191906000526020600020905b81548152906001019060200180831161031d57829003601f168201915b5050505050905090565b60008061034f61066d565b905061035c818585610675565b600191505092915050565b60055481565b6000600254905090565b60008061038261066d565b905061038f858285610687565b61039a85858561071b565b60019150509392505050565b60006012905090565b60008060008373ffffffffffffffffffffffffffffffffffffffff1673ffffffffffffffffffffffffffffffffffffffff168152602001908152602001600020549050919050565b600660009054906101000a900473ffffffffffffffffffffffffffffffffffffffff1681565b60606004805461042c90610ff5565b80601f016020809104026020016040519081016040528092919081815260200182805461045890610ff5565b80156104a55780601f1061047a576101008083540402835291602001916104a5565b820191906000526020600020905b81548152906001019060200180831161048857829003601f168201915b5050505050905090565b6000600554905090565b6000806104c461066d565b90506104d181858561071b565b600191505092915050565b3373ffffffffffffffffffffffffffffffffffffffff16600660009054906101000a900473ffffffffffffffffffffffffffffffffffffffff1673ffffffffffffffffffffffffffffffffffffffff161461056c576040517f08c379a000000000000000000000000000000000000000000000000000000000815260040161056390611072565b60405180910390fd5b6a52b7d2dcc80cd2e400000060055411156105bc576040517f08c379a00000000000000000000000000000000000000000000000000000000081526004016105b3906110de565b60405180910390fd5b6105c6338261080f565b6a295be96e64066972000000816105dd919061112d565b60058190555050565b6000600160008473ffffffffffffffffffffffffffffffffffffffff1673ffffffffffffffffffffffffffffffffffffffff16815260200190815260200160002060008373ffffffffffffffffffffffffffffffffffffffff1673ffffffffffffffffffffffffffffffffffffffff16815260200190815260200160002054905092915050565b600033905090565b6106828383836001610891565b505050565b600061069384846105e6565b90507fffffffffffffffffffffffffffffffffffffffffffffffffffffffffffffffff81146107155781811015610705578281836040517ffb8f41b20000000000000000000000000000000000000000000000000000000081526004016106fc93929190611161565b60405180910390fd5b61071484848484036000610891565b5b50505050565b600073ffffffffffffffffffffffffffffffffffffffff168373ffffffffffffffffffffffffffffffffffffffff160361078d5760006040517f96c6fd1e0000000000000000000000000000000000000000000000000000000081526004016107849190610f3e565b60405180910390fd5b600073ffffffffffffffffffffffffffffffffffffffff168273ffffffffffffffffffffffffffffffffffffffff16036107ff5760006040517fec442f050000000000000000000000000000000000000000000000000000000081526004016107f69190610f3e565b60405180910390fd5b61080a838383610a68565b505050565b600073ffffffffffffffffffffffffffffffffffffffff168273ffffffffffffffffffffffffffffffffffffffff16036108815760006040517fec442f050000000000000000000000000000000000000000000000000000000081526004016108789190610f3e565b60405180910390fd5b61088d60008383610a68565b5050565b600073ffffffffffffffffffffffffffffffffffffffff168473ffffffffffffffffffffffffffffffffffffffff16036109035760006040517fe602df050000000000000000000000000000000000000000000000000000000081526004016108fa9190610f3e565b60405180910390fd5b600073ffffffffffffffffffffffffffffffffffffffff168373ffffffffffffffffffffffffffffffffffffffff16036109755760006040517f94280d6200000000000000000000000000000000000000000000000000000000815260040161096c9190610f3e565b60405180910390fd5b81600160008673ffffffffffffffffffffffffffffffffffffffff1673ffffffffffffffffffffffffffffffffffffffff16815260200190815260200160002060008573ffffffffffffffffffffffffffffffffffffffff1673ffffffffffffffffffffffffffffffffffffffff168152602001908152602001600020819055508015610a62578273ffffffffffffffffffffffffffffffffffffffff168473ffffffffffffffffffffffffffffffffffffffff167f8c5be1e5ebec7d5bd14f71427d1e84f3dd0314c0f7b2291e5b200ac8c7c3b92584604051610a599190610e5d565b60405180910390a35b50505050565b600073ffffffffffffffffffffffffffffffffffffffff168373ffffffffffffffffffffffffffffffffffffffff1603610aba578060026000828254610aae919061112d565b92505081905550610b8d565b60008060008573ffffffffffffffffffffffffffffffffffffffff1673ffffffffffffffffffffffffffffffffffffffff16815260200190815260200160002054905081811015610b46578381836040517fe450d38c000000000000000000000000000000000000000000000000000000008152600401610b3d93929190611161565b60405180910390fd5b8181036000808673ffffffffffffffffffffffffffffffffffffffff1673ffffffffffffffffffffffffffffffffffffffff16815260200190815260200160002081905550505b600073ffffffffffffffffffffffffffffffffffffffff168273ffffffffffffffffffffffffffffffffffffffff1603610bd65780600260008282540392505081905550610c23565b806000808473ffffffffffffffffffffffffffffffffffffffff1673ffffffffffffffffffffffffffffffffffffffff168152602001908152602001600020600082825401925050819055505b8173ffffffffffffffffffffffffffffffffffffffff168373ffffffffffffffffffffffffffffffffffffffff167fddf252ad1be2c89b69c2b068fc378daa952ba7f163c4a11628f55a4df523b3ef83604051610c809190610e5d565b60405180910390a3505050565b600081519050919050565b600082825260208201905092915050565b60005b83811015610cc7578082015181840152602081019050610cac565b60008484015250505050565b6000601f19601f8301169050919050565b6000610cef82610c8d565b610cf98185610c98565b9350610d09818560208601610ca9565b610d1281610cd3565b840191505092915050565b60006020820190508181036000830152610d378184610ce4565b905092915050565b600080fd5b600073ffffffffffffffffffffffffffffffffffffffff82169050919050565b6000610d6f82610d44565b9050919050565b610d7f81610d64565b8114610d8a57600080fd5b50565b600081359050610d9c81610d76565b92915050565b6000819050919050565b610db581610da2565b8114610dc057600080fd5b50565b600081359050610dd281610dac565b92915050565b60008060408385031215610def57610dee610d3f565b5b6000610dfd85828601610d8d565b9250506020610e0e85828601610dc3565b9150509250929050565b60008115159050919050565b610e2d81610e18565b82525050565b6000602082019050610e486000830184610e24565b92915050565b610e5781610da2565b82525050565b6000602082019050610e726000830184610e4e565b92915050565b600080600060608486031215610e9157610e90610d3f565b5b6000610e9f86828701610d8d565b9350506020610eb086828701610d8d565b9250506040610ec186828701610dc3565b9150509250925092565b600060ff82169050919050565b610ee181610ecb565b82525050565b6000602082019050610efc6000830184610ed8565b92915050565b600060208284031215610f1857610f17610d3f565b5b6000610f2684828501610d8d565b91505092915050565b610f3881610d64565b82525050565b6000602082019050610f536000830184610f2f565b92915050565b600060208284031215610f6f57610f6e610d3f565b5b6000610f7d84828501610dc3565b91505092915050565b60008060408385031215610f9d57610f9c610d3f565b5b6000610fab85828601610d8d565b9250506020610fbc85828601610d8d565b9150509250929050565b7f4e487b7100000000000000000000000000000000000000000000000000000000600052602260045260246000fd5b6000600282049050600182168061100d57607f821691505b6020821081036110205761101f610fc6565b5b50919050565b7f63616c6c6572206973206e6f7420746865206f776e6572000000000000000000600082015250565b600061105c601783610c98565b915061106782611026565b602082019050919050565b6000602082019050818103600083015261108b8161104f565b9050919050565b7f4c494d4954204558434545444544000000000000000000000000000000000000600082015250565b60006110c8600e83610c98565b91506110d382611092565b602082019050919050565b600060208201905081810360008301526110f7816110bb565b9050919050565b7f4e487b7100000000000000000000000000000000000000000000000000000000600052601160045260246000fd5b600061113882610da2565b915061114383610da2565b925082820190508082111561115b5761115a6110fe565b5b92915050565b60006060820190506111766000830186610f2f565b6111836020830185610e4e565b6111906040830184610e4e565b94935050505056fea2646970667358221220d4c13dffc8911f4c684218fda76cc8f45be2e147b1473b0606ea6d678fbe978864736f6c634300081b0033",
  "linkReferences": {},
  "deployedLinkReferences": {}
}