{
  "_format": "hh-sol-artifact-1",
  "contractName": "Nosark",
  "sourceName": "contracts/Nosark.sol",
  "abi": [
    {
      "inputs": [],
      "stateMutability": "nonpayable",
      "type": "constructor"
    },
    {
      "inputs": [
        {
          "internalType": "address",
          "name": "spender",
          "type": "address"
        },
        {
          "internalType": "uint256",
          "name": "allowance",
          "type": "uint256"
        },
        {
          "internalType": "uint256",
          "name": "needed",
          "type": "uint256"
        }
      ],
      "name": "ERC20InsufficientAllowance",
      "type": "error"
    },
    {
      "inputs": [
        {
          "internalType": "address",
          "name": "sender",
          "type": "address"
        },
        {
          "internalType": "uint256",
          "name": "balance",
          "type": "uint256"
        },
        {
          "internalType": "uint256",
          "name": "needed",
          "type": "uint256"
        }
      ],
      "name": "ERC20InsufficientBalance",
      "type": "error"
    },
    {
      "inputs": [
        {
          "internalType": "address",
          "name": "approver",
          "type": "address"
        }
      ],
      "name": "ERC20InvalidApprover",
      "type": "error"
    },
    {
      "inputs": [
        {
          "internalType": "address",
          "name": "receiver",
          "type": "address"
        }
      ],
      "name": "ERC20InvalidReceiver",
      "type": "error"
    },
    {
      "inputs": [
        {
          "internalType": "address",
          "name": "sender",
          "type": "address"
        }
      ],
      "name": "ERC20InvalidSender",
      "type": "error"
    },
    {
      "inputs": [
        {
          "internalType": "address",
          "name": "spender",
          "type": "address"
        }
      ],
      "name": "ERC20InvalidSpender",
      "type": "error"
    },
    {
      "anonymous": false,
      "inputs": [
        {
          "indexed": true,
          "internalType": "address",
          "name": "owner",
          "type": "address"
        },
        {
          "indexed": true,
          "internalType": "address",
          "name": "spender",
          "type": "address"
        },
        {
          "indexed": false,
          "internalType": "uint256",
          "name": "value",
          "type": "uint256"
        }
      ],
      "name": "Approval",
      "type": "event"
    },
    {
      "anonymous": false,
      "inputs": [
        {
          "indexed": true,
          "internalType": "address",
          "name": "minter",
          "type": "address"
        },
        {
          "indexed": false,
          "internalType": "uint256",
          "name": "amount",
          "type": "uint256"
        }
      ],
      "name": "Mint",
      "type": "event"
    },
    {
      "anonymous": false,
      "inputs": [
        {
          "indexed": true,
          "internalType": "address",
          "name": "minter",
          "type": "address"
        }
      ],
      "name": "MintLimitReached",
      "type": "event"
    },
    {
      "anonymous": false,
      "inputs": [
        {
          "indexed": true,
          "internalType": "address",
          "name": "from",
          "type": "address"
        },
        {
          "indexed": true,
          "internalType": "address",
          "name": "to",
          "type": "address"
        },
        {
          "indexed": false,
          "internalType": "uint256",
          "name": "value",
          "type": "uint256"
        }
      ],
      "name": "Transfer",
      "type": "event"
    },
    {
      "inputs": [],
      "name": "MAX_SUPPLY",
      "outputs": [
        {
          "internalType": "uint256",
          "name": "",
          "type": "uint256"
        }
      ],
      "stateMutability": "view",
      "type": "function"
    },
    {
      "inputs": [
        {
          "internalType": "uint256",
          "name": "newsupply",
          "type": "uint256"
        }
      ],
      "name": "SetMaxSupply",
      "outputs": [],
      "stateMutability": "nonpayable",
      "type": "function"
    },
    {
      "inputs": [
        {
          "internalType": "address",
          "name": "owner",
          "type": "address"
        },
        {
          "internalType": "address",
          "name": "spender",
          "type": "address"
        }
      ],
      "name": "allowance",
      "outputs": [
        {
          "internalType": "uint256",
          "name": "",
          "type": "uint256"
        }
      ],
      "stateMutability": "view",
      "type": "function"
    },
    {
      "inputs": [
        {
          "internalType": "address",
          "name": "spender",
          "type": "address"
        },
        {
          "internalType": "uint256",
          "name": "value",
          "type": "uint256"
        }
      ],
      "name": "approve",
      "outputs": [
        {
          "internalType": "bool",
          "name": "",
          "type": "bool"
        }
      ],
      "stateMutability": "nonpayable",
      "type": "function"
    },
    {
      "inputs": [
        {
          "internalType": "address",
          "name": "account",
          "type": "address"
        }
      ],
      "name": "balanceOf",
      "outputs": [
        {
          "internalType": "uint256",
          "name": "",
          "type": "uint256"
        }
      ],
      "stateMutability": "view",
      "type": "function"
    },
    {
      "inputs": [
        {
          "internalType": "address",
          "name": "",
          "type": "address"
        }
      ],
      "name": "balances",
      "outputs": [
        {
          "internalType": "uint256",
          "name": "",
          "type": "uint256"
        }
      ],
      "stateMutability": "view",
      "type": "function"
    },
    {
      "inputs": [],
      "name": "decimals",
      "outputs": [
        {
          "internalType": "uint8",
          "name": "",
          "type": "uint8"
        }
      ],
      "stateMutability": "view",
      "type": "function"
    },
    {
      "inputs": [
        {
          "internalType": "uint256",
          "name": "amount",
          "type": "uint256"
        }
      ],
      "name": "mint",
      "outputs": [],
      "stateMutability": "nonpayable",
      "type": "function"
    },
    {
      "inputs": [],
      "name": "mint_limit",
      "outputs": [
        {
          "internalType": "uint256",
          "name": "",
          "type": "uint256"
        }
      ],
      "stateMutability": "view",
      "type": "function"
    },
    {
      "inputs": [],
      "name": "name",
      "outputs": [
        {
          "internalType": "string",
          "name": "",
          "type": "string"
        }
      ],
      "stateMutability": "view",
      "type": "function"
    },
    {
      "inputs": [],
      "name": "owner",
      "outputs": [
        {
          "internalType": "address",
          "name": "",
          "type": "address"
        }
      ],
      "stateMutability": "view",
      "type": "function"
    },
    {
      "inputs": [],
      "name": "payPenalty",
      "outputs": [],
      "stateMutability": "payable",
      "type": "function"
    },
    {
      "inputs": [
        {
          "internalType": "address",
          "name": "",
          "type": "address"
        }
      ],
      "name": "penaltybalances",
      "outputs": [
        {
          "internalType": "uint256",
          "name": "",
          "type": "uint256"
        }
      ],
      "stateMutability": "view",
      "type": "function"
    },
    {
      "inputs": [],
      "name": "penaltyfee",
      "outputs": [
        {
          "internalType": "uint256",
          "name": "",
          "type": "uint256"
        }
      ],
      "stateMutability": "view",
      "type": "function"
    },
    {
      "inputs": [],
      "name": "symbol",
      "outputs": [
        {
          "internalType": "string",
          "name": "",
          "type": "string"
        }
      ],
      "stateMutability": "view",
      "type": "function"
    },
    {
      "inputs": [],
      "name": "totalSupply",
      "outputs": [
        {
          "internalType": "uint256",
          "name": "",
          "type": "uint256"
        }
      ],
      "stateMutability": "view",
      "type": "function"
    },
    {
      "inputs": [
        {
          "internalType": "address",
          "name": "to",
          "type": "address"
        },
        {
          "internalType": "uint256",
          "name": "value",
          "type": "uint256"
        }
      ],
      "name": "transfer",
      "outputs": [
        {
          "internalType": "bool",
          "name": "",
          "type": "bool"
        }
      ],
      "stateMutability": "nonpayable",
      "type": "function"
    },
    {
      "inputs": [
        {
          "internalType": "address",
          "name": "from",
          "type": "address"
        },
        {
          "internalType": "address",
          "name": "to",
          "type": "address"
        },
        {
          "internalType": "uint256",
          "name": "value",
          "type": "uint256"
        }
      ],
      "name": "transferFrom",
      "outputs": [
        {
          "internalType": "bool",
          "name": "",
          "type": "bool"
        }
      ],
      "stateMutability": "nonpayable",
      "type": "function"
    },
    {
      "inputs": [],
      "name": "withdraw",
      "outputs": [],
      "stateMutability": "nonpayable",
      "type": "function"
    }
  ],
  "bytecode": "0x6080604052683635c9adc5dea0000060055569152d02c7e14af680000060065566038d7ea4c6800060075534801561003657600080fd5b506040518060400160405280600681526020017f4e4f5341524b00000000000000000000000000000000000000000000000000008152506040518060400160405280600281526020017f4e4b00000000000000000000000000000000000000000000000000000000000081525081600390816100b2919061035b565b5080600490816100c2919061035b565b50505033600860006101000a81548173ffffffffffffffffffffffffffffffffffffffff021916908373ffffffffffffffffffffffffffffffffffffffff16021790555061042d565b600081519050919050565b7f4e487b7100000000000000000000000000000000000000000000000000000000600052604160045260246000fd5b7f4e487b7100000000000000000000000000000000000000000000000000000000600052602260045260246000fd5b6000600282049050600182168061018c57607f821691505b60208210810361019f5761019e610145565b5b50919050565b60008190508160005260206000209050919050565b60006020601f8301049050919050565b600082821b905092915050565b6000600883026102077fffffffffffffffffffffffffffffffffffffffffffffffffffffffffffffffff826101ca565b61021186836101ca565b95508019841693508086168417925050509392505050565b6000819050919050565b6000819050919050565b600061025861025361024e84610229565b610233565b610229565b9050919050565b6000819050919050565b6102728361023d565b61028661027e8261025f565b8484546101d7565b825550505050565b600090565b61029b61028e565b6102a6818484610269565b505050565b5b818110156102ca576102bf600082610293565b6001810190506102ac565b5050565b601f82111561030f576102e0816101a5565b6102e9846101ba565b810160208510156102f8578190505b61030c610304856101ba565b8301826102ab565b50505b505050565b600082821c905092915050565b600061033260001984600802610314565b1980831691505092915050565b600061034b8383610321565b9150826002028217905092915050565b6103648261010b565b67ffffffffffffffff81111561037d5761037c610116565b5b6103878254610174565b6103928282856102ce565b600060209050601f8311600181146103c557600084156103b3578287015190505b6103bd858261033f565b865550610425565b601f1984166103d3866101a5565b60005b828110156103fb578489015182556001820191506020850194506020810190506103d6565b868310156104185784890151610414601f891682610321565b8355505b6001600288020188555050505b505050505050565b6117e78061043c6000396000f3fe6080604052600436106101145760003560e01c806332cb6b0c116100a057806395d89b411161006457806395d89b41146103b7578063a0712d68146103e2578063a9059cbb1461040b578063b404d65d14610448578063dd62ed3e1461045257610114565b806332cb6b0c146102e45780633ccfd60b1461030f5780633f8118fc1461032657806370a082311461034f5780638da5cb5b1461038c57610114565b806318160ddd116100e757806318160ddd146101e957806323b872dd14610214578063272a5c471461025157806327e235e31461027c578063313ce567146102b957610114565b806306fdde0314610119578063095ea7b314610144578063114e31011461018157806312204407146101ac575b600080fd5b34801561012557600080fd5b5061012e61048f565b60405161013b919061125e565b60405180910390f35b34801561015057600080fd5b5061016b60048036038101906101669190611319565b610521565b6040516101789190611374565b60405180910390f35b34801561018d57600080fd5b50610196610544565b6040516101a3919061139e565b60405180910390f35b3480156101b857600080fd5b506101d360048036038101906101ce91906113b9565b61054a565b6040516101e0919061139e565b60405180910390f35b3480156101f557600080fd5b506101fe610562565b60405161020b919061139e565b60405180910390f35b34801561022057600080fd5b5061023b600480360381019061023691906113e6565b610571565b6040516102489190611374565b60405180910390f35b34801561025d57600080fd5b506102666105a0565b604051610273919061139e565b60405180910390f35b34801561028857600080fd5b506102a3600480360381019061029e91906113b9565b6105a6565b6040516102b0919061139e565b60405180910390f35b3480156102c557600080fd5b506102ce6105be565b6040516102db9190611455565b60405180910390f35b3480156102f057600080fd5b506102f96105c7565b604051610306919061139e565b60405180910390f35b34801561031b57600080fd5b506103246105cd565b005b34801561033257600080fd5b5061034d60048036038101906103489190611470565b6106a6565b005b34801561035b57600080fd5b50610376600480360381019061037191906113b9565b610740565b604051610383919061139e565b60405180910390f35b34801561039857600080fd5b506103a1610788565b6040516103ae91906114ac565b60405180910390f35b3480156103c357600080fd5b506103cc6107ae565b6040516103d9919061125e565b60405180910390f35b3480156103ee57600080fd5b5061040960048036038101906104049190611470565b610840565b005b34801561041757600080fd5b50610432600480360381019061042d9190611319565b610a33565b60405161043f9190611374565b60405180910390f35b610450610a56565b005b34801561045e57600080fd5b50610479600480360381019061047491906114c7565b610b1d565b604051610486919061139e565b60405180910390f35b60606003805461049e90611536565b80601f01602080910402602001604051908101604052809291908181526020018280546104ca90611536565b80156105175780601f106104ec57610100808354040283529160200191610517565b820191906000526020600020905b8154815290600101906020018083116104fa57829003601f168201915b5050505050905090565b60008061052c610ba4565b9050610539818585610bac565b600191505092915050565b60055481565b600a6020528060005260406000206000915090505481565b600061056c610bbe565b905090565b60008061057c610ba4565b9050610589858285610bc8565b610594858585610c5c565b60019150509392505050565b60075481565b60096020528060005260406000206000915090505481565b60006012905090565b60065481565b600860009054906101000a900473ffffffffffffffffffffffffffffffffffffffff1673ffffffffffffffffffffffffffffffffffffffff163373ffffffffffffffffffffffffffffffffffffffff161461065d576040517f08c379a0000000000000000000000000000000000000000000000000000000008152600401610654906115b3565b60405180910390fd5b3373ffffffffffffffffffffffffffffffffffffffff166108fc479081150290604051600060405180830381858888f193505050501580156106a3573d6000803e3d6000fd5b50565b600860009054906101000a900473ffffffffffffffffffffffffffffffffffffffff1673ffffffffffffffffffffffffffffffffffffffff163373ffffffffffffffffffffffffffffffffffffffff1614610736576040517f08c379a000000000000000000000000000000000000000000000000000000000815260040161072d906115b3565b60405180910390fd5b8060068190555050565b60008060008373ffffffffffffffffffffffffffffffffffffffff1673ffffffffffffffffffffffffffffffffffffffff168152602001908152602001600020549050919050565b600860009054906101000a900473ffffffffffffffffffffffffffffffffffffffff1681565b6060600480546107bd90611536565b80601f01602080910402602001604051908101604052809291908181526020018280546107e990611536565b80156108365780601f1061080b57610100808354040283529160200191610836565b820191906000526020600020905b81548152906001019060200180831161081957829003601f168201915b5050505050905090565b6000600960003373ffffffffffffffffffffffffffffffffffffffff1673ffffffffffffffffffffffffffffffffffffffff1681526020019081526020016000205490506000600a60003373ffffffffffffffffffffffffffffffffffffffff1673ffffffffffffffffffffffffffffffffffffffff168152602001908152602001600020546005546108d39190611602565b9050600083836108e39190611602565b9050600654846108f1610562565b6108fb9190611602565b111561093c576040517f08c379a000000000000000000000000000000000000000000000000000000000815260040161093390611682565b60405180910390fd5b8181111561097f576040517f08c379a0000000000000000000000000000000000000000000000000000000008152600401610976906116ee565b60405180910390fd5b83600960003373ffffffffffffffffffffffffffffffffffffffff1673ffffffffffffffffffffffffffffffffffffffff16815260200190815260200160002060008282546109ce9190611602565b925050819055506109df3385610d50565b3373ffffffffffffffffffffffffffffffffffffffff167f0f6798a560793a54c3bcfe86a93cde1e73087d944c0ea20544137d412139688585604051610a25919061139e565b60405180910390a250505050565b600080610a3e610ba4565b9050610a4b818585610c5c565b600191505092915050565b6007543414610a9a576040517f08c379a0000000000000000000000000000000000000000000000000000000008152600401610a919061175a565b60405180910390fd5b683635c9adc5dea00000600a60003373ffffffffffffffffffffffffffffffffffffffff1673ffffffffffffffffffffffffffffffffffffffff1681526020019081526020016000206000828254610af29190611602565b92505081905550683635c9adc5dea0000060066000828254610b149190611602565b92505081905550565b6000600160008473ffffffffffffffffffffffffffffffffffffffff1673ffffffffffffffffffffffffffffffffffffffff16815260200190815260200160002060008373ffffffffffffffffffffffffffffffffffffffff1673ffffffffffffffffffffffffffffffffffffffff16815260200190815260200160002054905092915050565b600033905090565b610bb98383836001610dd2565b505050565b6000600254905090565b6000610bd48484610b1d565b90507fffffffffffffffffffffffffffffffffffffffffffffffffffffffffffffffff8114610c565781811015610c46578281836040517ffb8f41b2000000000000000000000000000000000000000000000000000000008152600401610c3d9392919061177a565b60405180910390fd5b610c5584848484036000610dd2565b5b50505050565b600073ffffffffffffffffffffffffffffffffffffffff168373ffffffffffffffffffffffffffffffffffffffff1603610cce5760006040517f96c6fd1e000000000000000000000000000000000000000000000000000000008152600401610cc591906114ac565b60405180910390fd5b600073ffffffffffffffffffffffffffffffffffffffff168273ffffffffffffffffffffffffffffffffffffffff1603610d405760006040517fec442f05000000000000000000000000000000000000000000000000000000008152600401610d3791906114ac565b60405180910390fd5b610d4b838383610fa9565b505050565b600073ffffffffffffffffffffffffffffffffffffffff168273ffffffffffffffffffffffffffffffffffffffff1603610dc25760006040517fec442f05000000000000000000000000000000000000000000000000000000008152600401610db991906114ac565b60405180910390fd5b610dce60008383610fa9565b5050565b600073ffffffffffffffffffffffffffffffffffffffff168473ffffffffffffffffffffffffffffffffffffffff1603610e445760006040517fe602df05000000000000000000000000000000000000000000000000000000008152600401610e3b91906114ac565b60405180910390fd5b600073ffffffffffffffffffffffffffffffffffffffff168373ffffffffffffffffffffffffffffffffffffffff1603610eb65760006040517f94280d62000000000000000000000000000000000000000000000000000000008152600401610ead91906114ac565b60405180910390fd5b81600160008673ffffffffffffffffffffffffffffffffffffffff1673ffffffffffffffffffffffffffffffffffffffff16815260200190815260200160002060008573ffffffffffffffffffffffffffffffffffffffff1673ffffffffffffffffffffffffffffffffffffffff168152602001908152602001600020819055508015610fa3578273ffffffffffffffffffffffffffffffffffffffff168473ffffffffffffffffffffffffffffffffffffffff167f8c5be1e5ebec7d5bd14f71427d1e84f3dd0314c0f7b2291e5b200ac8c7c3b92584604051610f9a919061139e565b60405180910390a35b50505050565b600073ffffffffffffffffffffffffffffffffffffffff168373ffffffffffffffffffffffffffffffffffffffff1603610ffb578060026000828254610fef9190611602565b925050819055506110ce565b60008060008573ffffffffffffffffffffffffffffffffffffffff1673ffffffffffffffffffffffffffffffffffffffff16815260200190815260200160002054905081811015611087578381836040517fe450d38c00000000000000000000000000000000000000000000000000000000815260040161107e9392919061177a565b60405180910390fd5b8181036000808673ffffffffffffffffffffffffffffffffffffffff1673ffffffffffffffffffffffffffffffffffffffff16815260200190815260200160002081905550505b600073ffffffffffffffffffffffffffffffffffffffff168273ffffffffffffffffffffffffffffffffffffffff16036111175780600260008282540392505081905550611164565b806000808473ffffffffffffffffffffffffffffffffffffffff1673ffffffffffffffffffffffffffffffffffffffff168152602001908152602001600020600082825401925050819055505b8173ffffffffffffffffffffffffffffffffffffffff168373ffffffffffffffffffffffffffffffffffffffff167fddf252ad1be2c89b69c2b068fc378daa952ba7f163c4a11628f55a4df523b3ef836040516111c1919061139e565b60405180910390a3505050565b600081519050919050565b600082825260208201905092915050565b60005b838110156112085780820151818401526020810190506111ed565b60008484015250505050565b6000601f19601f8301169050919050565b6000611230826111ce565b61123a81856111d9565b935061124a8185602086016111ea565b61125381611214565b840191505092915050565b600060208201905081810360008301526112788184611225565b905092915050565b600080fd5b600073ffffffffffffffffffffffffffffffffffffffff82169050919050565b60006112b082611285565b9050919050565b6112c0816112a5565b81146112cb57600080fd5b50565b6000813590506112dd816112b7565b92915050565b6000819050919050565b6112f6816112e3565b811461130157600080fd5b50565b600081359050611313816112ed565b92915050565b600080604083850312156113305761132f611280565b5b600061133e858286016112ce565b925050602061134f85828601611304565b9150509250929050565b60008115159050919050565b61136e81611359565b82525050565b60006020820190506113896000830184611365565b92915050565b611398816112e3565b82525050565b60006020820190506113b3600083018461138f565b92915050565b6000602082840312156113cf576113ce611280565b5b60006113dd848285016112ce565b91505092915050565b6000806000606084860312156113ff576113fe611280565b5b600061140d868287016112ce565b935050602061141e868287016112ce565b925050604061142f86828701611304565b9150509250925092565b600060ff82169050919050565b61144f81611439565b82525050565b600060208201905061146a6000830184611446565b92915050565b60006020828403121561148657611485611280565b5b600061149484828501611304565b91505092915050565b6114a6816112a5565b82525050565b60006020820190506114c1600083018461149d565b92915050565b600080604083850312156114de576114dd611280565b5b60006114ec858286016112ce565b92505060206114fd858286016112ce565b9150509250929050565b7f4e487b7100000000000000000000000000000000000000000000000000000000600052602260045260246000fd5b6000600282049050600182168061154e57607f821691505b60208210810361156157611560611507565b5b50919050565b7f4f6e6c79204f776e65722063616e2043616c6c00000000000000000000000000600082015250565b600061159d6013836111d9565b91506115a882611567565b602082019050919050565b600060208201905081810360008301526115cc81611590565b9050919050565b7f4e487b7100000000000000000000000000000000000000000000000000000000600052601160045260246000fd5b600061160d826112e3565b9150611618836112e3565b92508282019050808211156116305761162f6115d3565b5b92915050565b7f4e6f206d6f726520746f6b656e7320617661696c61626c650000000000000000600082015250565b600061166c6018836111d9565b915061167782611636565b602082019050919050565b6000602082019050818103600083015261169b8161165f565b9050919050565b7f457863656564696e6720737570706c7900000000000000000000000000000000600082015250565b60006116d86010836111d9565b91506116e3826116a2565b602082019050919050565b60006020820190508181036000830152611707816116cb565b9050919050565b7f496e636f72726563742070656e616c7479206665650000000000000000000000600082015250565b60006117446015836111d9565b915061174f8261170e565b602082019050919050565b6000602082019050818103600083015261177381611737565b9050919050565b600060608201905061178f600083018661149d565b61179c602083018561138f565b6117a9604083018461138f565b94935050505056fea26469706673582212208eea4bc66e9039490a2f2d710977c06b377ccbfb718e2b9d0069051b48d0873664736f6c634300081b0033",
  "linkReferences": {},
  "deployedLinkReferences": {}
}